{
  "_format": "hh-sol-artifact-1",
  "contractName": "DePinVPN",
  "sourceName": "contracts/MyContract.sol",
  "abi": [
    {
      "inputs": [
        {
          "internalType": "address",
          "name": "_usdc",
          "type": "address"
        }
      ],
      "stateMutability": "nonpayable",
      "type": "constructor"
    },
    {
      "inputs": [
        {
          "internalType": "address",
          "name": "owner",
          "type": "address"
        }
      ],
      "name": "OwnableInvalidOwner",
      "type": "error"
    },
    {
      "inputs": [
        {
          "internalType": "address",
          "name": "account",
          "type": "address"
        }
      ],
      "name": "OwnableUnauthorizedAccount",
      "type": "error"
    },
    {
      "inputs": [],
      "name": "ReentrancyGuardReentrantCall",
      "type": "error"
    },
    {
      "inputs": [
        {
          "internalType": "address",
          "name": "token",
          "type": "address"
        }
      ],
      "name": "SafeERC20FailedOperation",
      "type": "error"
    },
    {
      "anonymous": false,
      "inputs": [
        {
          "indexed": true,
          "internalType": "uint256",
          "name": "connectionId",
          "type": "uint256"
        },
        {
          "indexed": true,
          "internalType": "address",
          "name": "client",
          "type": "address"
        },
        {
          "indexed": true,
          "internalType": "uint256",
          "name": "nodeId",
          "type": "uint256"
        },
        {
          "indexed": false,
          "internalType": "uint256",
          "name": "amountPaid",
          "type": "uint256"
        }
      ],
      "name": "ConnectionStarted",
      "type": "event"
    },
    {
      "anonymous": false,
      "inputs": [
        {
          "indexed": true,
          "internalType": "uint256",
          "name": "connectionId",
          "type": "uint256"
        },
        {
          "indexed": false,
          "internalType": "uint256",
          "name": "minutesUsed",
          "type": "uint256"
        },
        {
          "indexed": false,
          "internalType": "uint256",
          "name": "totalCost",
          "type": "uint256"
        },
        {
          "indexed": false,
          "internalType": "uint256",
          "name": "refundAmount",
          "type": "uint256"
        }
      ],
      "name": "ConnectionStopped",
      "type": "event"
    },
    {
      "anonymous": false,
      "inputs": [
        {
          "indexed": true,
          "internalType": "uint256",
          "name": "nodeId",
          "type": "uint256"
        }
      ],
      "name": "NodeDeactivated",
      "type": "event"
    },
    {
      "anonymous": false,
      "inputs": [
        {
          "indexed": true,
          "internalType": "uint256",
          "name": "nodeId",
          "type": "uint256"
        },
        {
          "indexed": false,
          "internalType": "string",
          "name": "newIp",
          "type": "string"
        }
      ],
      "name": "NodeIPUpdated",
      "type": "event"
    },
    {
      "anonymous": false,
      "inputs": [
        {
          "indexed": true,
          "internalType": "uint256",
          "name": "nodeId",
          "type": "uint256"
        },
        {
          "indexed": false,
          "internalType": "uint16",
          "name": "newPort",
          "type": "uint16"
        }
      ],
      "name": "NodePortUpdated",
      "type": "event"
    },
    {
      "anonymous": false,
      "inputs": [
        {
          "indexed": true,
          "internalType": "uint256",
          "name": "nodeId",
          "type": "uint256"
        },
        {
          "indexed": false,
          "internalType": "uint256",
          "name": "newPricePerMinute",
          "type": "uint256"
        }
      ],
      "name": "NodePriceUpdated",
      "type": "event"
    },
    {
      "anonymous": false,
      "inputs": [
        {
          "indexed": true,
          "internalType": "uint256",
          "name": "nodeId",
          "type": "uint256"
        }
      ],
      "name": "NodeReactivated",
      "type": "event"
    },
    {
      "anonymous": false,
      "inputs": [
        {
          "indexed": true,
          "internalType": "uint256",
          "name": "nodeId",
          "type": "uint256"
        },
        {
          "indexed": true,
          "internalType": "address",
          "name": "owner",
          "type": "address"
        },
        {
          "indexed": false,
          "internalType": "string",
          "name": "ipAddress",
          "type": "string"
        },
        {
          "indexed": false,
          "internalType": "uint16",
          "name": "port",
          "type": "uint16"
        },
        {
          "indexed": false,
          "internalType": "uint256",
          "name": "pricePerMinute",
          "type": "uint256"
        }
      ],
      "name": "NodeRegistered",
      "type": "event"
    },
    {
      "anonymous": false,
      "inputs": [
        {
          "indexed": true,
          "internalType": "address",
          "name": "previousOwner",
          "type": "address"
        },
        {
          "indexed": true,
          "internalType": "address",
          "name": "newOwner",
          "type": "address"
        }
      ],
      "name": "OwnershipTransferred",
      "type": "event"
    },
    {
      "anonymous": false,
      "inputs": [
        {
          "indexed": false,
          "internalType": "uint256",
          "name": "newFeeBp",
          "type": "uint256"
        }
      ],
      "name": "PlatformFeeUpdated",
      "type": "event"
    },
    {
      "anonymous": false,
      "inputs": [
        {
          "indexed": true,
          "internalType": "address",
          "name": "to",
          "type": "address"
        },
        {
          "indexed": false,
          "internalType": "uint256",
          "name": "amount",
          "type": "uint256"
        }
      ],
      "name": "PlatformFeesWithdrawn",
      "type": "event"
    },
    {
      "anonymous": false,
      "inputs": [
        {
          "indexed": true,
          "internalType": "address",
          "name": "to",
          "type": "address"
        },
        {
          "indexed": false,
          "internalType": "uint256",
          "name": "amount",
          "type": "uint256"
        }
      ],
      "name": "Withdrawn",
      "type": "event"
    },
    {
      "inputs": [],
      "name": "MAX_PLATFORM_FEE_BP",
      "outputs": [
        {
          "internalType": "uint256",
          "name": "",
          "type": "uint256"
        }
      ],
      "stateMutability": "view",
      "type": "function"
    },
    {
      "inputs": [
        {
          "internalType": "uint256",
          "name": "_nodeId",
          "type": "uint256"
        }
      ],
      "name": "adminDeactivateNode",
      "outputs": [],
      "stateMutability": "nonpayable",
      "type": "function"
    },
    {
      "inputs": [
        {
          "internalType": "address",
          "name": "",
          "type": "address"
        }
      ],
      "name": "clientBalances",
      "outputs": [
        {
          "internalType": "uint256",
          "name": "",
          "type": "uint256"
        }
      ],
      "stateMutability": "view",
      "type": "function"
    },
    {
      "inputs": [],
      "name": "connectionCounter",
      "outputs": [
        {
          "internalType": "uint256",
          "name": "",
          "type": "uint256"
        }
      ],
      "stateMutability": "view",
      "type": "function"
    },
    {
      "inputs": [
        {
          "internalType": "uint256",
          "name": "",
          "type": "uint256"
        }
      ],
      "name": "connections",
      "outputs": [
        {
          "internalType": "address",
          "name": "client",
          "type": "address"
        },
        {
          "internalType": "uint256",
          "name": "nodeId",
          "type": "uint256"
        },
        {
          "internalType": "uint256",
          "name": "startTime",
          "type": "uint256"
        },
        {
          "internalType": "uint256",
          "name": "endTime",
          "type": "uint256"
        },
        {
          "internalType": "uint256",
          "name": "minutesUsed",
          "type": "uint256"
        },
        {
          "internalType": "bool",
          "name": "isActive",
          "type": "bool"
        },
        {
          "internalType": "uint256",
          "name": "amountPaid",
          "type": "uint256"
        }
      ],
      "stateMutability": "view",
      "type": "function"
    },
    {
      "inputs": [
        {
          "internalType": "uint256",
          "name": "_nodeId",
          "type": "uint256"
        }
      ],
      "name": "deactivateNode",
      "outputs": [],
      "stateMutability": "nonpayable",
      "type": "function"
    },
    {
      "inputs": [],
      "name": "getAvailableNodes",
      "outputs": [
        {
          "internalType": "uint256[]",
          "name": "",
          "type": "uint256[]"
        }
      ],
      "stateMutability": "view",
      "type": "function"
    },
    {
      "inputs": [
        {
          "internalType": "uint256",
          "name": "_nodeId",
          "type": "uint256"
        },
        {
          "internalType": "uint256",
          "name": "_minutes",
          "type": "uint256"
        }
      ],
      "name": "getConnectionCost",
      "outputs": [
        {
          "internalType": "uint256",
          "name": "",
          "type": "uint256"
        }
      ],
      "stateMutability": "view",
      "type": "function"
    },
    {
      "inputs": [
        {
          "internalType": "uint256",
          "name": "_connectionId",
          "type": "uint256"
        }
      ],
      "name": "getConnectionUsage",
      "outputs": [
        {
          "internalType": "uint256",
          "name": "startTime",
          "type": "uint256"
        },
        {
          "internalType": "uint256",
          "name": "minutesUsed",
          "type": "uint256"
        },
        {
          "internalType": "uint256",
          "name": "amountPaid",
          "type": "uint256"
        },
        {
          "internalType": "bool",
          "name": "isActive",
          "type": "bool"
        }
      ],
      "stateMutability": "view",
      "type": "function"
    },
    {
      "inputs": [
        {
          "internalType": "uint256",
          "name": "_nodeId",
          "type": "uint256"
        }
      ],
      "name": "getNodeDetails",
      "outputs": [
        {
          "internalType": "address",
          "name": "owner",
          "type": "address"
        },
        {
          "internalType": "string",
          "name": "ipAddress",
          "type": "string"
        },
        {
          "internalType": "uint16",
          "name": "port",
          "type": "uint16"
        },
        {
          "internalType": "uint256",
          "name": "pricePerMinute",
          "type": "uint256"
        },
        {
          "internalType": "uint256",
          "name": "currentUsers",
          "type": "uint256"
        },
        {
          "internalType": "uint256",
          "name": "maxConcurrentUsers",
          "type": "uint256"
        },
        {
          "internalType": "bool",
          "name": "isActive",
          "type": "bool"
        },
        {
          "internalType": "uint256",
          "name": "totalEarned",
          "type": "uint256"
        },
        {
          "internalType": "uint256",
          "name": "reputation",
          "type": "uint256"
        }
      ],
      "stateMutability": "view",
      "type": "function"
    },
    {
      "inputs": [],
      "name": "nodeCounter",
      "outputs": [
        {
          "internalType": "uint256",
          "name": "",
          "type": "uint256"
        }
      ],
      "stateMutability": "view",
      "type": "function"
    },
    {
      "inputs": [
        {
          "internalType": "uint256",
          "name": "",
          "type": "uint256"
        }
      ],
      "name": "nodes",
      "outputs": [
        {
          "internalType": "address",
          "name": "owner",
          "type": "address"
        },
        {
          "internalType": "string",
          "name": "ipAddress",
          "type": "string"
        },
        {
          "internalType": "uint16",
          "name": "port",
          "type": "uint16"
        },
        {
          "internalType": "uint256",
          "name": "pricePerMinute",
          "type": "uint256"
        },
        {
          "internalType": "uint256",
          "name": "totalEarned",
          "type": "uint256"
        },
        {
          "internalType": "uint256",
          "name": "reputation",
          "type": "uint256"
        },
        {
          "internalType": "bool",
          "name": "isActive",
          "type": "bool"
        },
        {
          "internalType": "uint256",
          "name": "maxConcurrentUsers",
          "type": "uint256"
        },
        {
          "internalType": "uint256",
          "name": "currentUsers",
          "type": "uint256"
        }
      ],
      "stateMutability": "view",
      "type": "function"
    },
    {
      "inputs": [],
      "name": "owner",
      "outputs": [
        {
          "internalType": "address",
          "name": "",
          "type": "address"
        }
      ],
      "stateMutability": "view",
      "type": "function"
    },
    {
      "inputs": [],
      "name": "platformBalance",
      "outputs": [
        {
          "internalType": "uint256",
          "name": "",
          "type": "uint256"
        }
      ],
      "stateMutability": "view",
      "type": "function"
    },
    {
      "inputs": [],
      "name": "platformFeeBp",
      "outputs": [
        {
          "internalType": "uint256",
          "name": "",
          "type": "uint256"
        }
      ],
      "stateMutability": "view",
      "type": "function"
    },
    {
      "inputs": [
        {
          "internalType": "address",
          "name": "",
          "type": "address"
        }
      ],
      "name": "providerBalances",
      "outputs": [
        {
          "internalType": "uint256",
          "name": "",
          "type": "uint256"
        }
      ],
      "stateMutability": "view",
      "type": "function"
    },
    {
      "inputs": [
        {
          "internalType": "uint256",
          "name": "_nodeId",
          "type": "uint256"
        }
      ],
      "name": "reactivateNode",
      "outputs": [],
      "stateMutability": "nonpayable",
      "type": "function"
    },
    {
      "inputs": [
        {
          "internalType": "string",
          "name": "_ipAddress",
          "type": "string"
        },
        {
          "internalType": "uint16",
          "name": "_port",
          "type": "uint16"
        },
        {
          "internalType": "uint256",
          "name": "_maxConcurrentUsers",
          "type": "uint256"
        },
        {
          "internalType": "uint256",
          "name": "_pricePerMinute",
          "type": "uint256"
        }
      ],
      "name": "registerNode",
      "outputs": [],
      "stateMutability": "nonpayable",
      "type": "function"
    },
    {
      "inputs": [],
      "name": "renounceOwnership",
      "outputs": [],
      "stateMutability": "nonpayable",
      "type": "function"
    },
    {
      "inputs": [
        {
          "internalType": "uint256",
          "name": "_feeBp",
          "type": "uint256"
        }
      ],
      "name": "setPlatformFee",
      "outputs": [],
      "stateMutability": "nonpayable",
      "type": "function"
    },
    {
      "inputs": [
        {
          "internalType": "uint256",
          "name": "_nodeId",
          "type": "uint256"
        }
      ],
      "name": "startConnection",
      "outputs": [],
      "stateMutability": "nonpayable",
      "type": "function"
    },
    {
      "inputs": [
        {
          "internalType": "uint256",
          "name": "_connectionId",
          "type": "uint256"
        }
      ],
      "name": "stopConnection",
      "outputs": [],
      "stateMutability": "nonpayable",
      "type": "function"
    },
    {
      "inputs": [
        {
          "internalType": "address",
          "name": "newOwner",
          "type": "address"
        }
      ],
      "name": "transferOwnership",
      "outputs": [],
      "stateMutability": "nonpayable",
      "type": "function"
    },
    {
      "inputs": [
        {
          "internalType": "uint256",
          "name": "_nodeId",
          "type": "uint256"
        },
        {
          "internalType": "string",
          "name": "_newIP",
          "type": "string"
        }
      ],
      "name": "updateNodeIP",
      "outputs": [],
      "stateMutability": "nonpayable",
      "type": "function"
    },
    {
      "inputs": [
        {
          "internalType": "uint256",
          "name": "_nodeId",
          "type": "uint256"
        },
        {
          "internalType": "uint16",
          "name": "_newPort",
          "type": "uint16"
        }
      ],
      "name": "updateNodePort",
      "outputs": [],
      "stateMutability": "nonpayable",
      "type": "function"
    },
    {
      "inputs": [
        {
          "internalType": "uint256",
          "name": "_nodeId",
          "type": "uint256"
        },
        {
          "internalType": "uint256",
          "name": "_newPricePerMinute",
          "type": "uint256"
        }
      ],
      "name": "updateNodePrice",
      "outputs": [],
      "stateMutability": "nonpayable",
      "type": "function"
    },
    {
      "inputs": [],
      "name": "usdcToken",
      "outputs": [
        {
          "internalType": "contract IERC20",
          "name": "",
          "type": "address"
        }
      ],
      "stateMutability": "view",
      "type": "function"
    },
    {
      "inputs": [],
      "name": "withdrawClientBalance",
      "outputs": [],
      "stateMutability": "nonpayable",
      "type": "function"
    },
    {
      "inputs": [],
      "name": "withdrawEarnings",
      "outputs": [],
      "stateMutability": "nonpayable",
      "type": "function"
    },
    {
      "inputs": [
        {
          "internalType": "address",
          "name": "_to",
          "type": "address"
        }
      ],
      "name": "withdrawPlatformFees",
      "outputs": [],
      "stateMutability": "nonpayable",
      "type": "function"
    }
  ],
  "bytecode": "0x60806040526101f46009553480156200001757600080fd5b50604051620042943803806200429483398181016040528101906200003d9190620002b7565b336001600081905550600073ffffffffffffffffffffffffffffffffffffffff168173ffffffffffffffffffffffffffffffffffffffff1603620000bb5760006040517f1e4fbdf7000000000000000000000000000000000000000000000000000000008152600401620000b29190620002fa565b60405180910390fd5b620000cc816200018760201b60201c565b50600073ffffffffffffffffffffffffffffffffffffffff168173ffffffffffffffffffffffffffffffffffffffff16036200013f576040517f08c379a0000000000000000000000000000000000000000000000000000000008152600401620001369062000378565b60405180910390fd5b80600260006101000a81548173ffffffffffffffffffffffffffffffffffffffff021916908373ffffffffffffffffffffffffffffffffffffffff160217905550506200039a565b6000600160009054906101000a900473ffffffffffffffffffffffffffffffffffffffff16905081600160006101000a81548173ffffffffffffffffffffffffffffffffffffffff021916908373ffffffffffffffffffffffffffffffffffffffff1602179055508173ffffffffffffffffffffffffffffffffffffffff168173ffffffffffffffffffffffffffffffffffffffff167f8be0079c531659141344cd1fd0a4f28419497f9722a3daafe3b4186f6b6457e060405160405180910390a35050565b600080fd5b600073ffffffffffffffffffffffffffffffffffffffff82169050919050565b60006200027f8262000252565b9050919050565b620002918162000272565b81146200029d57600080fd5b50565b600081519050620002b18162000286565b92915050565b600060208284031215620002d057620002cf6200024d565b5b6000620002e084828501620002a0565b91505092915050565b620002f48162000272565b82525050565b6000602082019050620003116000830184620002e9565b92915050565b600082825260208201905092915050565b7f496e76616c696420555344432061646472657373000000000000000000000000600082015250565b60006200036060148362000317565b91506200036d8262000328565b602082019050919050565b60006020820190508181036000830152620003938162000351565b9050919050565b613eea80620003aa6000396000f3fe608060405234801561001057600080fd5b50600436106101da5760003560e01c80638c6e9d1c11610104578063c98d74d8116100a2578063ec3889b511610071578063ec3889b51461051f578063f2fde38b1461053b578063f8bd333c14610557578063feaa7c5d1461058a576101da565b8063c98d74d814610499578063e44a7ec0146104b7578063e77f3856146104e7578063e9d6383014610503576101da565b8063963913a7116100de578063963913a714610439578063b73c6ce914610457578063bff6154414610461578063c967858f1461047d576101da565b80638c6e9d1c146103cf5780638c86bc46146103ff5780638da5cb5b1461041b576101da565b806342424e451161017c5780635cf59bf81161014b5780635cf59bf8146103815780635dc4cb431461038b57806362a5dbbc146103a7578063715018a6146103c5576101da565b806342424e45146102f1578063436a014a1461030f5780634b9d4bab1461032d5780635afbba4714610349576101da565b80631c53c280116101b85780631c53c280146102355780631ca02e631461026d57806328ac7f2c1461028b5780633d06b900146102bb576101da565b806307257fb4146101df57806311eac855146101fb57806312e8e2c314610219575b600080fd5b6101f960048036038101906101f49190612814565b6105a6565b005b6102036107f1565b60405161021091906128c0565b60405180910390f35b610233600480360381019061022e9190612814565b610817565b005b61024f600480360381019061024a9190612814565b6108a5565b604051610264999897969594939291906129d3565b60405180910390f35b6102756109b6565b6040516102829190612a67565b60405180910390f35b6102a560048036038101906102a09190612aae565b6109bc565b6040516102b29190612a67565b60405180910390f35b6102d560048036038101906102d09190612814565b6109d4565b6040516102e89796959493929190612adb565b60405180910390f35b6102f9610a43565b6040516103069190612a67565b60405180910390f35b610317610a49565b6040516103249190612c08565b60405180910390f35b61034760048036038101906103429190612c2a565b610cad565b005b610363600480360381019061035e9190612814565b610ddf565b604051610378999897969594939291906129d3565b60405180910390f35b610389610f17565b005b6103a560048036038101906103a09190612814565b611091565b005b6103af611422565b6040516103bc9190612a67565b60405180910390f35b6103cd611428565b005b6103e960048036038101906103e49190612aae565b61143c565b6040516103f69190612a67565b60405180910390f35b61041960048036038101906104149190612c96565b611454565b005b6104236115f9565b6040516104309190612cd6565b60405180910390f35b610441611623565b60405161044e9190612a67565b60405180910390f35b61045f611629565b005b61047b60048036038101906104769190612d56565b6117a3565b005b61049760048036038101906104929190612dde565b611acd565b005b6104a1611c10565b6040516104ae9190612a67565b60405180910390f35b6104d160048036038101906104cc9190612c2a565b611c16565b6040516104de9190612a67565b60405180910390f35b61050160048036038101906104fc9190612814565b611c42565b005b61051d60048036038101906105189190612814565b611d00565b005b61053960048036038101906105349190612aae565b611e48565b005b61055560048036038101906105509190612aae565b611f51565b005b610571600480360381019061056c9190612814565b611fd7565b6040516105819493929190612e3e565b60405180910390f35b6105a4600480360381019061059f9190612814565b612072565b005b6105ae61220e565b60006004600083815260200190815260200160002090508060050160009054906101000a900460ff16610616576040517f08c379a000000000000000000000000000000000000000000000000000000000815260040161060d90612ecf565b60405180910390fd5b8060000160009054906101000a900473ffffffffffffffffffffffffffffffffffffffff1673ffffffffffffffffffffffffffffffffffffffff163373ffffffffffffffffffffffffffffffffffffffff16146106a8576040517f08c379a000000000000000000000000000000000000000000000000000000000815260040161069f90612f3b565b60405180910390fd5b600060036000836001015481526020019081526020016000209050600073ffffffffffffffffffffffffffffffffffffffff168160000160009054906101000a900473ffffffffffffffffffffffffffffffffffffffff1673ffffffffffffffffffffffffffffffffffffffff1603610756576040517f08c379a000000000000000000000000000000000000000000000000000000000815260040161074d90612fa7565b60405180910390fd5b6000429050600083600201548261076d9190612ff6565b90506000603c603b83610780919061302a565b61078a919061308d565b905060008560050160006101000a81548160ff0219169083151502179055508285600301819055508085600401819055508360080160008154809291906107d0906130be565b91905055506107e186868684612254565b50505050506107ee6124d2565b50565b600260009054906101000a900473ffffffffffffffffffffffffffffffffffffffff1681565b61081f6124dc565b6103e8811115610864576040517f08c379a000000000000000000000000000000000000000000000000000000000815260040161085b90613133565b60405180910390fd5b806009819055507f45610d581145924dd7090a5017e5f2b1d6f42213bb2e95707ff86846bbfcb1ca8160405161089a9190612a67565b60405180910390a150565b60036020528060005260406000206000915090508060000160009054906101000a900473ffffffffffffffffffffffffffffffffffffffff16908060010180546108ee90613182565b80601f016020809104026020016040519081016040528092919081815260200182805461091a90613182565b80156109675780601f1061093c57610100808354040283529160200191610967565b820191906000526020600020905b81548152906001019060200180831161094a57829003601f168201915b5050505050908060020160009054906101000a900461ffff16908060030154908060040154908060050154908060060160009054906101000a900460ff16908060070154908060080154905089565b60075481565b60056020528060005260406000206000915090505481565b60046020528060005260406000206000915090508060000160009054906101000a900473ffffffffffffffffffffffffffffffffffffffff16908060010154908060020154908060030154908060040154908060050160009054906101000a900460ff16908060060154905087565b60085481565b6060600080600190505b6007548111610b40576003600082815260200190815260200160002060060160009054906101000a900460ff168015610ab7575060036000828152602001908152602001600020600701546003600083815260200190815260200160002060080154105b8015610ae557506000600360008381526020019081526020016000206001018054610ae190613182565b9050115b8015610b19575060006003600083815260200190815260200160002060020160009054906101000a900461ffff1661ffff16115b15610b2d578180610b29906131b3565b9250505b8080610b38906131b3565b915050610a53565b5060008167ffffffffffffffff811115610b5d57610b5c6131fb565b5b604051908082528060200260200182016040528015610b8b5781602001602082028036833780820191505090505b509050600080600190505b6007548111610ca3576003600082815260200190815260200160002060060160009054906101000a900460ff168015610bfa575060036000828152602001908152602001600020600701546003600083815260200190815260200160002060080154105b8015610c2857506000600360008381526020019081526020016000206001018054610c2490613182565b9050115b8015610c5c575060006003600083815260200190815260200160002060020160009054906101000a900461ffff1661ffff16115b15610c905780838381518110610c7557610c7461322a565b5b6020026020010181815250508180610c8c906131b3565b9250505b8080610c9b906131b3565b915050610b96565b5081935050505090565b60006003600084815260200190815260200160002090503373ffffffffffffffffffffffffffffffffffffffff168160000160009054906101000a900473ffffffffffffffffffffffffffffffffffffffff1673ffffffffffffffffffffffffffffffffffffffff1614610d56576040517f08c379a0000000000000000000000000000000000000000000000000000000008152600401610d4d906132a5565b60405180910390fd5b60008211610d99576040517f08c379a0000000000000000000000000000000000000000000000000000000008152600401610d9090613311565b60405180910390fd5b818160030181905550827ff8dc912383a1e26340117ea70228392350cd1eb524bf288e7c4ab6ae73c6064583604051610dd29190612a67565b60405180910390a2505050565b60006060600080600080600080600080600360008c815260200190815260200160002090508060000160009054906101000a900473ffffffffffffffffffffffffffffffffffffffff16816001018260020160009054906101000a900461ffff168360030154846008015485600701548660060160009054906101000a900460ff1687600401548860050154878054610e7790613182565b80601f0160208091040260200160405190810160405280929190818152602001828054610ea390613182565b8015610ef05780601f10610ec557610100808354040283529160200191610ef0565b820191906000526020600020905b815481529060010190602001808311610ed357829003601f168201915b50505050509750995099509950995099509950995099509950509193959799909294969850565b610f1f61220e565b6000600660003373ffffffffffffffffffffffffffffffffffffffff1673ffffffffffffffffffffffffffffffffffffffff16815260200190815260200160002054905060008111610fa6576040517f08c379a0000000000000000000000000000000000000000000000000000000008152600401610f9d9061337d565b60405180910390fd5b6000600660003373ffffffffffffffffffffffffffffffffffffffff1673ffffffffffffffffffffffffffffffffffffffff168152602001908152602001600020819055506110383382600260009054906101000a900473ffffffffffffffffffffffffffffffffffffffff1673ffffffffffffffffffffffffffffffffffffffff166125639092919063ffffffff16565b3373ffffffffffffffffffffffffffffffffffffffff167f7084f5476618d8e60b11ef0d7d3f06914655adb8793e28ff7f018d4c76d505d58260405161107e9190612a67565b60405180910390a25061108f6124d2565b565b61109961220e565b60006003600083815260200190815260200160002090508060060160009054906101000a900460ff16611101576040517f08c379a00000000000000000000000000000000000000000000000000000000081526004016110f8906133e9565b60405180910390fd5b806007015481600801541061114b576040517f08c379a000000000000000000000000000000000000000000000000000000000815260040161114290613455565b60405180910390fd5b600081600101805461115c90613182565b90501161119e576040517f08c379a0000000000000000000000000000000000000000000000000000000008152600401611195906134c1565b60405180910390fd5b60008160020160009054906101000a900461ffff1661ffff16116111f7576040517f08c379a00000000000000000000000000000000000000000000000000000000081526004016111ee9061352d565b60405180910390fd5b60008160030154905060008111611243576040517f08c379a000000000000000000000000000000000000000000000000000000000815260040161123a90613599565b60405180910390fd5b611292333083600260009054906101000a900473ffffffffffffffffffffffffffffffffffffffff1673ffffffffffffffffffffffffffffffffffffffff166125e2909392919063ffffffff16565b8160080160008154809291906112a7906131b3565b9190505550600860008154809291906112bf906131b3565b91905055506040518060e001604052803373ffffffffffffffffffffffffffffffffffffffff16815260200184815260200142815260200160008152602001600081526020016001151581526020018281525060046000600854815260200190815260200160002060008201518160000160006101000a81548173ffffffffffffffffffffffffffffffffffffffff021916908373ffffffffffffffffffffffffffffffffffffffff1602179055506020820151816001015560408201518160020155606082015181600301556080820151816004015560a08201518160050160006101000a81548160ff02191690831515021790555060c08201518160060155905050823373ffffffffffffffffffffffffffffffffffffffff166008547f5f195931acbed6b5e9ed1d4256e12477b496020dbdccfad7e2cdc6d411beca918460405161140d9190612a67565b60405180910390a4505061141f6124d2565b50565b600a5481565b6114306124dc565b61143a6000612664565b565b60066020528060005260406000206000915090505481565b60006003600084815260200190815260200160002090503373ffffffffffffffffffffffffffffffffffffffff168160000160009054906101000a900473ffffffffffffffffffffffffffffffffffffffff1673ffffffffffffffffffffffffffffffffffffffff16146114fd576040517f08c379a00000000000000000000000000000000000000000000000000000000081526004016114f4906132a5565b60405180910390fd5b60008261ffff16118015611517575061ffff8261ffff1611155b611556576040517f08c379a000000000000000000000000000000000000000000000000000000000815260040161154d90613605565b60405180910390fd5b600081600801541461159d576040517f08c379a000000000000000000000000000000000000000000000000000000000815260040161159490613697565b60405180910390fd5b818160020160006101000a81548161ffff021916908361ffff160217905550827f6ff875fdd0d31ad59bd923336e3129fefb7207678027237eee0739d3d966654f836040516115ec91906136b7565b60405180910390a2505050565b6000600160009054906101000a900473ffffffffffffffffffffffffffffffffffffffff16905090565b6103e881565b61163161220e565b6000600560003373ffffffffffffffffffffffffffffffffffffffff1673ffffffffffffffffffffffffffffffffffffffff168152602001908152602001600020549050600081116116b8576040517f08c379a00000000000000000000000000000000000000000000000000000000081526004016116af9061371e565b60405180910390fd5b6000600560003373ffffffffffffffffffffffffffffffffffffffff1673ffffffffffffffffffffffffffffffffffffffff1681526020019081526020016000208190555061174a3382600260009054906101000a900473ffffffffffffffffffffffffffffffffffffffff1673ffffffffffffffffffffffffffffffffffffffff166125639092919063ffffffff16565b3373ffffffffffffffffffffffffffffffffffffffff167f7084f5476618d8e60b11ef0d7d3f06914655adb8793e28ff7f018d4c76d505d5826040516117909190612a67565b60405180910390a2506117a16124d2565b565b600082116117e6576040517f08c379a00000000000000000000000000000000000000000000000000000000081526004016117dd9061378a565b60405180910390fd5b60008361ffff16118015611800575061ffff8361ffff1611155b61183f576040517f08c379a000000000000000000000000000000000000000000000000000000000815260040161183690613605565b60405180910390fd5b60008585905011611885576040517f08c379a000000000000000000000000000000000000000000000000000000000815260040161187c906137f6565b60405180910390fd5b600081116118c8576040517f08c379a00000000000000000000000000000000000000000000000000000000081526004016118bf90613888565b60405180910390fd5b600760008154809291906118db906131b3565b91905055506040518061012001604052803373ffffffffffffffffffffffffffffffffffffffff16815260200186868080601f016020809104026020016040519081016040528093929190818152602001838380828437600081840152601f19601f8201169050808301925050505050505081526020018461ffff1681526020018281526020016000815260200160648152602001600115158152602001838152602001600081525060036000600754815260200190815260200160002060008201518160000160006101000a81548173ffffffffffffffffffffffffffffffffffffffff021916908373ffffffffffffffffffffffffffffffffffffffff16021790555060208201518160010190816119f59190613a4a565b5060408201518160020160006101000a81548161ffff021916908361ffff160217905550606082015181600301556080820151816004015560a0820151816005015560c08201518160060160006101000a81548160ff02191690831515021790555060e0820151816007015561010082015181600801559050503373ffffffffffffffffffffffffffffffffffffffff166007547ff8ecb349d84a5000eb46dd51b09b07de64a1c8074adcc7daadd6533e394126f387878786604051611abe9493929190613b58565b60405180910390a35050505050565b60006003600085815260200190815260200160002090503373ffffffffffffffffffffffffffffffffffffffff168160000160009054906101000a900473ffffffffffffffffffffffffffffffffffffffff1673ffffffffffffffffffffffffffffffffffffffff1614611b76576040517f08c379a0000000000000000000000000000000000000000000000000000000008152600401611b6d906132a5565b60405180910390fd5b60008383905011611bbc576040517f08c379a0000000000000000000000000000000000000000000000000000000008152600401611bb3906137f6565b60405180910390fd5b8282826001019182611bcf929190613ba3565b50837f424cbb2a3be7cebb445ac6db90492767c696ee33ba881f2aa0a8ec269867bf878484604051611c02929190613c73565b60405180910390a250505050565b60095481565b6000816003600085815260200190815260200160002060030154611c3a9190613c97565b905092915050565b611c4a6124dc565b60006003600083815260200190815260200160002090508060060160009054906101000a900460ff16611cb2576040517f08c379a0000000000000000000000000000000000000000000000000000000008152600401611ca990613d25565b60405180910390fd5b60008160060160006101000a81548160ff021916908315150217905550817f225b982f3f68d9ecd9aaa2ece1c491786e6e4bf7ac4028b1ce7024691475383c60405160405180910390a25050565b60006003600083815260200190815260200160002090503373ffffffffffffffffffffffffffffffffffffffff168160000160009054906101000a900473ffffffffffffffffffffffffffffffffffffffff1673ffffffffffffffffffffffffffffffffffffffff1614611da9576040517f08c379a0000000000000000000000000000000000000000000000000000000008152600401611da0906132a5565b60405180910390fd5b8060060160009054906101000a900460ff16611dfa576040517f08c379a0000000000000000000000000000000000000000000000000000000008152600401611df190613d25565b60405180910390fd5b60008160060160006101000a81548160ff021916908315150217905550817f225b982f3f68d9ecd9aaa2ece1c491786e6e4bf7ac4028b1ce7024691475383c60405160405180910390a25050565b611e506124dc565b611e5861220e565b6000600a54905060008111611ea2576040517f08c379a0000000000000000000000000000000000000000000000000000000008152600401611e9990613d91565b60405180910390fd5b6000600a81905550611ef78282600260009054906101000a900473ffffffffffffffffffffffffffffffffffffffff1673ffffffffffffffffffffffffffffffffffffffff166125639092919063ffffffff16565b8173ffffffffffffffffffffffffffffffffffffffff167ffc7ad544ff6a06d6499925723d25b6fe70457a42939995b1d3d6f560fe33633382604051611f3d9190612a67565b60405180910390a250611f4e6124d2565b50565b611f596124dc565b600073ffffffffffffffffffffffffffffffffffffffff168173ffffffffffffffffffffffffffffffffffffffff1603611fcb5760006040517f1e4fbdf7000000000000000000000000000000000000000000000000000000008152600401611fc29190612cd6565b60405180910390fd5b611fd481612664565b50565b600080600080600060046000878152602001908152602001600020905060008160050160009054906101000a900460ff161561203c57603c603b8360020154426120219190612ff6565b61202b919061302a565b612035919061308d565b9050612044565b816004015490505b81600201548183600601548460050160009054906101000a900460ff16955095509550955050509193509193565b60006003600083815260200190815260200160002090503373ffffffffffffffffffffffffffffffffffffffff168160000160009054906101000a900473ffffffffffffffffffffffffffffffffffffffff1673ffffffffffffffffffffffffffffffffffffffff161461211b576040517f08c379a0000000000000000000000000000000000000000000000000000000008152600401612112906132a5565b60405180910390fd5b8060060160009054906101000a900460ff161561216d576040517f08c379a000000000000000000000000000000000000000000000000000000000815260040161216490613dfd565b60405180910390fd5b600081600101805461217e90613182565b9050116121c0576040517f08c379a00000000000000000000000000000000000000000000000000000000081526004016121b7906134c1565b60405180910390fd5b60018160060160006101000a81548160ff021916908315150217905550817f8fb3c41260bcc5bac58cda54c1e265767dbcce0663179a43cf8159f4063312e360405160405180910390a25050565b60026000540361224a576040517f3ee5aeb500000000000000000000000000000000000000000000000000000000815260040160405180910390fd5b6002600081905550565b60008260030154826122669190613c97565b90506000846006015490508082111561230157600081836122879190612ff6565b90506122fc8660000160009054906101000a900473ffffffffffffffffffffffffffffffffffffffff163083600260009054906101000a900473ffffffffffffffffffffffffffffffffffffffff1673ffffffffffffffffffffffffffffffffffffffff166125e2909392919063ffffffff16565b829150505b6000828211156123975782826123179190612ff6565b905080600660008860000160009054906101000a900473ffffffffffffffffffffffffffffffffffffffff1673ffffffffffffffffffffffffffffffffffffffff1673ffffffffffffffffffffffffffffffffffffffff168152602001908152602001600020600082825461238c919061302a565b925050819055508291505b60006127106009546127106123ac9190612ff6565b856123b79190613c97565b6123c1919061308d565b9050600081856123d19190612ff6565b9050818760040160008282546123e7919061302a565b9250508190555081600560008960000160009054906101000a900473ffffffffffffffffffffffffffffffffffffffff1673ffffffffffffffffffffffffffffffffffffffff1673ffffffffffffffffffffffffffffffffffffffff1681526020019081526020016000206000828254612461919061302a565b9250508190555080600a600082825461247a919061302a565b9250508190555060008860060181905550887f1ed15b31dd4e85f8d53881d2fcaa7fcbd9362740b8832849e6c9ae90598cdfd28787866040516124bf93929190613e1d565b60405180910390a2505050505050505050565b6001600081905550565b6124e461272a565b73ffffffffffffffffffffffffffffffffffffffff166125026115f9565b73ffffffffffffffffffffffffffffffffffffffff16146125615761252561272a565b6040517f118cdaa70000000000000000000000000000000000000000000000000000000081526004016125589190612cd6565b60405180910390fd5b565b6125dd838473ffffffffffffffffffffffffffffffffffffffff1663a9059cbb8585604051602401612596929190613e54565b604051602081830303815290604052915060e01b6020820180517bffffffffffffffffffffffffffffffffffffffffffffffffffffffff8381831617835250505050612732565b505050565b61265e848573ffffffffffffffffffffffffffffffffffffffff166323b872dd86868660405160240161261793929190613e7d565b604051602081830303815290604052915060e01b6020820180517bffffffffffffffffffffffffffffffffffffffffffffffffffffffff8381831617835250505050612732565b50505050565b6000600160009054906101000a900473ffffffffffffffffffffffffffffffffffffffff16905081600160006101000a81548173ffffffffffffffffffffffffffffffffffffffff021916908373ffffffffffffffffffffffffffffffffffffffff1602179055508173ffffffffffffffffffffffffffffffffffffffff168173ffffffffffffffffffffffffffffffffffffffff167f8be0079c531659141344cd1fd0a4f28419497f9722a3daafe3b4186f6b6457e060405160405180910390a35050565b600033905090565b600080602060008451602086016000885af180612755576040513d6000823e3d81fd5b3d92506000519150506000821461277057600181141561278c565b60008473ffffffffffffffffffffffffffffffffffffffff163b145b156127ce57836040517f5274afe70000000000000000000000000000000000000000000000000000000081526004016127c59190612cd6565b60405180910390fd5b50505050565b600080fd5b600080fd5b6000819050919050565b6127f1816127de565b81146127fc57600080fd5b50565b60008135905061280e816127e8565b92915050565b60006020828403121561282a576128296127d4565b5b6000612838848285016127ff565b91505092915050565b600073ffffffffffffffffffffffffffffffffffffffff82169050919050565b6000819050919050565b600061288661288161287c84612841565b612861565b612841565b9050919050565b60006128988261286b565b9050919050565b60006128aa8261288d565b9050919050565b6128ba8161289f565b82525050565b60006020820190506128d560008301846128b1565b92915050565b60006128e682612841565b9050919050565b6128f6816128db565b82525050565b600081519050919050565b600082825260208201905092915050565b60005b8381101561293657808201518184015260208101905061291b565b60008484015250505050565b6000601f19601f8301169050919050565b600061295e826128fc565b6129688185612907565b9350612978818560208601612918565b61298181612942565b840191505092915050565b600061ffff82169050919050565b6129a38161298c565b82525050565b6129b2816127de565b82525050565b60008115159050919050565b6129cd816129b8565b82525050565b6000610120820190506129e9600083018c6128ed565b81810360208301526129fb818b612953565b9050612a0a604083018a61299a565b612a1760608301896129a9565b612a2460808301886129a9565b612a3160a08301876129a9565b612a3e60c08301866129c4565b612a4b60e08301856129a9565b612a596101008301846129a9565b9a9950505050505050505050565b6000602082019050612a7c60008301846129a9565b92915050565b612a8b816128db565b8114612a9657600080fd5b50565b600081359050612aa881612a82565b92915050565b600060208284031215612ac457612ac36127d4565b5b6000612ad284828501612a99565b91505092915050565b600060e082019050612af0600083018a6128ed565b612afd60208301896129a9565b612b0a60408301886129a9565b612b1760608301876129a9565b612b2460808301866129a9565b612b3160a08301856129c4565b612b3e60c08301846129a9565b98975050505050505050565b600081519050919050565b600082825260208201905092915050565b6000819050602082019050919050565b612b7f816127de565b82525050565b6000612b918383612b76565b60208301905092915050565b6000602082019050919050565b6000612bb582612b4a565b612bbf8185612b55565b9350612bca83612b66565b8060005b83811015612bfb578151612be28882612b85565b9750612bed83612b9d565b925050600181019050612bce565b5085935050505092915050565b60006020820190508181036000830152612c228184612baa565b905092915050565b60008060408385031215612c4157612c406127d4565b5b6000612c4f858286016127ff565b9250506020612c60858286016127ff565b9150509250929050565b612c738161298c565b8114612c7e57600080fd5b50565b600081359050612c9081612c6a565b92915050565b60008060408385031215612cad57612cac6127d4565b5b6000612cbb858286016127ff565b9250506020612ccc85828601612c81565b9150509250929050565b6000602082019050612ceb60008301846128ed565b92915050565b600080fd5b600080fd5b600080fd5b60008083601f840112612d1657612d15612cf1565b5b8235905067ffffffffffffffff811115612d3357612d32612cf6565b5b602083019150836001820283011115612d4f57612d4e612cfb565b5b9250929050565b600080600080600060808688031215612d7257612d716127d4565b5b600086013567ffffffffffffffff811115612d9057612d8f6127d9565b5b612d9c88828901612d00565b95509550506020612daf88828901612c81565b9350506040612dc0888289016127ff565b9250506060612dd1888289016127ff565b9150509295509295909350565b600080600060408486031215612df757612df66127d4565b5b6000612e05868287016127ff565b935050602084013567ffffffffffffffff811115612e2657612e256127d9565b5b612e3286828701612d00565b92509250509250925092565b6000608082019050612e5360008301876129a9565b612e6060208301866129a9565b612e6d60408301856129a9565b612e7a60608301846129c4565b95945050505050565b7f436f6e6e656374696f6e206e6f74206163746976650000000000000000000000600082015250565b6000612eb9601583612907565b9150612ec482612e83565b602082019050919050565b60006020820190508181036000830152612ee881612eac565b9050919050565b7f4f6e6c7920636c69656e742063616e2073746f7020636f6e6e656374696f6e00600082015250565b6000612f25601f83612907565b9150612f3082612eef565b602082019050919050565b60006020820190508181036000830152612f5481612f18565b9050919050565b7f4e6f6465206e6f7420666f756e64000000000000000000000000000000000000600082015250565b6000612f91600e83612907565b9150612f9c82612f5b565b602082019050919050565b60006020820190508181036000830152612fc081612f84565b9050919050565b7f4e487b7100000000000000000000000000000000000000000000000000000000600052601160045260246000fd5b6000613001826127de565b915061300c836127de565b925082820390508181111561302457613023612fc7565b5b92915050565b6000613035826127de565b9150613040836127de565b925082820190508082111561305857613057612fc7565b5b92915050565b7f4e487b7100000000000000000000000000000000000000000000000000000000600052601260045260246000fd5b6000613098826127de565b91506130a3836127de565b9250826130b3576130b261305e565b5b828204905092915050565b60006130c9826127de565b9150600082036130dc576130db612fc7565b5b600182039050919050565b7f46656520746f6f20686967680000000000000000000000000000000000000000600082015250565b600061311d600c83612907565b9150613128826130e7565b602082019050919050565b6000602082019050818103600083015261314c81613110565b9050919050565b7f4e487b7100000000000000000000000000000000000000000000000000000000600052602260045260246000fd5b6000600282049050600182168061319a57607f821691505b6020821081036131ad576131ac613153565b5b50919050565b60006131be826127de565b91507fffffffffffffffffffffffffffffffffffffffffffffffffffffffffffffffff82036131f0576131ef612fc7565b5b600182019050919050565b7f4e487b7100000000000000000000000000000000000000000000000000000000600052604160045260246000fd5b7f4e487b7100000000000000000000000000000000000000000000000000000000600052603260045260246000fd5b7f4e6f74206e6f6465206f776e6572000000000000000000000000000000000000600082015250565b600061328f600e83612907565b915061329a82613259565b602082019050919050565b600060208201905081810360008301526132be81613282565b9050919050565b7f5072696365206d75737420626520706f73697469766500000000000000000000600082015250565b60006132fb601683612907565b9150613306826132c5565b602082019050919050565b6000602082019050818103600083015261332a816132ee565b9050919050565b7f4e6f2062616c616e636520746f20776974686472617700000000000000000000600082015250565b6000613367601683612907565b915061337282613331565b602082019050919050565b600060208201905081810360008301526133968161335a565b9050919050565b7f4e6f6465206e6f74206163746976650000000000000000000000000000000000600082015250565b60006133d3600f83612907565b91506133de8261339d565b602082019050919050565b60006020820190508181036000830152613402816133c6565b9050919050565b7f4e6f646520617420636170616369747900000000000000000000000000000000600082015250565b600061343f601083612907565b915061344a82613409565b602082019050919050565b6000602082019050818103600083015261346e81613432565b9050919050565b7f4e6f6465204950206e6f74207365740000000000000000000000000000000000600082015250565b60006134ab600f83612907565b91506134b682613475565b602082019050919050565b600060208201905081810360008301526134da8161349e565b9050919050565b7f4e6f646520706f7274206e6f7420736574000000000000000000000000000000600082015250565b6000613517601183612907565b9150613522826134e1565b602082019050919050565b600060208201905081810360008301526135468161350a565b9050919050565b7f4e6f6465207072696365206e6f74207365740000000000000000000000000000600082015250565b6000613583601283612907565b915061358e8261354d565b602082019050919050565b600060208201905081810360008301526135b281613576565b9050919050565b7f496e76616c696420706f72740000000000000000000000000000000000000000600082015250565b60006135ef600c83612907565b91506135fa826135b9565b602082019050919050565b6000602082019050818103600083015261361e816135e2565b9050919050565b7f43616e6e6f74206368616e676520706f7274207769746820616374697665206360008201527f6f6e6e656374696f6e7300000000000000000000000000000000000000000000602082015250565b6000613681602a83612907565b915061368c82613625565b604082019050919050565b600060208201905081810360008301526136b081613674565b9050919050565b60006020820190506136cc600083018461299a565b92915050565b7f4e6f206561726e696e677320746f207769746864726177000000000000000000600082015250565b6000613708601783612907565b9150613713826136d2565b602082019050919050565b60006020820190508181036000830152613737816136fb565b9050919050565b7f4d6178207573657273206d75737420626520706f736974697665000000000000600082015250565b6000613774601a83612907565b915061377f8261373e565b602082019050919050565b600060208201905081810360008301526137a381613767565b9050919050565b7f4950206164647265737320726571756972656400000000000000000000000000600082015250565b60006137e0601383612907565b91506137eb826137aa565b602082019050919050565b6000602082019050818103600083015261380f816137d3565b9050919050565b7f507269636520706572206d696e757465206d75737420626520706f736974697660008201527f6500000000000000000000000000000000000000000000000000000000000000602082015250565b6000613872602183612907565b915061387d82613816565b604082019050919050565b600060208201905081810360008301526138a181613865565b9050919050565b60008190508160005260206000209050919050565b60006020601f8301049050919050565b600082821b905092915050565b60006008830261390a7fffffffffffffffffffffffffffffffffffffffffffffffffffffffffffffffff826138cd565b61391486836138cd565b95508019841693508086168417925050509392505050565b600061394761394261393d846127de565b612861565b6127de565b9050919050565b6000819050919050565b6139618361392c565b61397561396d8261394e565b8484546138da565b825550505050565b600090565b61398a61397d565b613995818484613958565b505050565b5b818110156139b9576139ae600082613982565b60018101905061399b565b5050565b601f8211156139fe576139cf816138a8565b6139d8846138bd565b810160208510156139e7578190505b6139fb6139f3856138bd565b83018261399a565b50505b505050565b600082821c905092915050565b6000613a2160001984600802613a03565b1980831691505092915050565b6000613a3a8383613a10565b9150826002028217905092915050565b613a53826128fc565b67ffffffffffffffff811115613a6c57613a6b6131fb565b5b613a768254613182565b613a818282856139bd565b600060209050601f831160018114613ab45760008415613aa2578287015190505b613aac8582613a2e565b865550613b14565b601f198416613ac2866138a8565b60005b82811015613aea57848901518255600182019150602085019450602081019050613ac5565b86831015613b075784890151613b03601f891682613a10565b8355505b6001600288020188555050505b505050505050565b82818337600083830152505050565b6000613b378385612907565b9350613b44838584613b1c565b613b4d83612942565b840190509392505050565b60006060820190508181036000830152613b73818688613b2b565b9050613b82602083018561299a565b613b8f60408301846129a9565b95945050505050565b600082905092915050565b613bad8383613b98565b67ffffffffffffffff811115613bc657613bc56131fb565b5b613bd08254613182565b613bdb8282856139bd565b6000601f831160018114613c0a5760008415613bf8578287013590505b613c028582613a2e565b865550613c6a565b601f198416613c18866138a8565b60005b82811015613c4057848901358255600182019150602085019450602081019050613c1b565b86831015613c5d5784890135613c59601f891682613a10565b8355505b6001600288020188555050505b50505050505050565b60006020820190508181036000830152613c8e818486613b2b565b90509392505050565b6000613ca2826127de565b9150613cad836127de565b9250828202613cbb816127de565b91508282048414831517613cd257613cd1612fc7565b5b5092915050565b7f4e6f646520616c726561647920696e6163746976650000000000000000000000600082015250565b6000613d0f601583612907565b9150613d1a82613cd9565b602082019050919050565b60006020820190508181036000830152613d3e81613d02565b9050919050565b7f4e6f20706c6174666f726d2062616c616e636500000000000000000000000000600082015250565b6000613d7b601383612907565b9150613d8682613d45565b602082019050919050565b60006020820190508181036000830152613daa81613d6e565b9050919050565b7f4e6f646520616c72656164792061637469766500000000000000000000000000600082015250565b6000613de7601383612907565b9150613df282613db1565b602082019050919050565b60006020820190508181036000830152613e1681613dda565b9050919050565b6000606082019050613e3260008301866129a9565b613e3f60208301856129a9565b613e4c60408301846129a9565b949350505050565b6000604082019050613e6960008301856128ed565b613e7660208301846129a9565b9392505050565b6000606082019050613e9260008301866128ed565b613e9f60208301856128ed565b613eac60408301846129a9565b94935050505056fea26469706673582212206ebf429889d1b447dd0b075cc84a5cd9eecc56673259a3df264166325de3fdc064736f6c63430008140033",
  "linkReferences": {},
  "deployedLinkReferences": {}
}